{
  "_format": "hh-sol-artifact-1",
  "contractName": "MyToken",
  "sourceName": "contracts/hc8aj3.sol",
  "abi": [
    {
      "inputs": [],
      "stateMutability": "nonpayable",
      "type": "constructor"
    },
    {
      "inputs": [],
      "name": "InvalidShortString",
      "type": "error"
    },
    {
      "inputs": [
        {
          "internalType": "string",
          "name": "str",
          "type": "string"
        }
      ],
      "name": "StringTooLong",
      "type": "error"
    },
    {
      "anonymous": false,
      "inputs": [
        {
          "indexed": true,
          "internalType": "address",
          "name": "owner",
          "type": "address"
        },
        {
          "indexed": true,
          "internalType": "address",
          "name": "spender",
          "type": "address"
        },
        {
          "indexed": false,
          "internalType": "uint256",
          "name": "value",
          "type": "uint256"
        }
      ],
      "name": "Approval",
      "type": "event"
    },
    {
      "anonymous": false,
      "inputs": [
        {
          "indexed": true,
          "internalType": "address",
          "name": "delegator",
          "type": "address"
        },
        {
          "indexed": true,
          "internalType": "address",
          "name": "fromDelegate",
          "type": "address"
        },
        {
          "indexed": true,
          "internalType": "address",
          "name": "toDelegate",
          "type": "address"
        }
      ],
      "name": "DelegateChanged",
      "type": "event"
    },
    {
      "anonymous": false,
      "inputs": [
        {
          "indexed": true,
          "internalType": "address",
          "name": "delegate",
          "type": "address"
        },
        {
          "indexed": false,
          "internalType": "uint256",
          "name": "previousBalance",
          "type": "uint256"
        },
        {
          "indexed": false,
          "internalType": "uint256",
          "name": "newBalance",
          "type": "uint256"
        }
      ],
      "name": "DelegateVotesChanged",
      "type": "event"
    },
    {
      "anonymous": false,
      "inputs": [],
      "name": "EIP712DomainChanged",
      "type": "event"
    },
    {
      "anonymous": false,
      "inputs": [
        {
          "indexed": true,
          "internalType": "address",
          "name": "previousOwner",
          "type": "address"
        },
        {
          "indexed": true,
          "internalType": "address",
          "name": "newOwner",
          "type": "address"
        }
      ],
      "name": "OwnershipTransferred",
      "type": "event"
    },
    {
      "anonymous": false,
      "inputs": [
        {
          "indexed": false,
          "internalType": "address",
          "name": "account",
          "type": "address"
        }
      ],
      "name": "Paused",
      "type": "event"
    },
    {
      "anonymous": false,
      "inputs": [
        {
          "indexed": false,
          "internalType": "uint256",
          "name": "id",
          "type": "uint256"
        }
      ],
      "name": "Snapshot",
      "type": "event"
    },
    {
      "anonymous": false,
      "inputs": [
        {
          "indexed": true,
          "internalType": "address",
          "name": "from",
          "type": "address"
        },
        {
          "indexed": true,
          "internalType": "address",
          "name": "to",
          "type": "address"
        },
        {
          "indexed": false,
          "internalType": "uint256",
          "name": "value",
          "type": "uint256"
        }
      ],
      "name": "Transfer",
      "type": "event"
    },
    {
      "anonymous": false,
      "inputs": [
        {
          "indexed": false,
          "internalType": "address",
          "name": "account",
          "type": "address"
        }
      ],
      "name": "Unpaused",
      "type": "event"
    },
    {
      "inputs": [],
      "name": "CLOCK_MODE",
      "outputs": [
        {
          "internalType": "string",
          "name": "",
          "type": "string"
        }
      ],
      "stateMutability": "view",
      "type": "function"
    },
    {
      "inputs": [],
      "name": "DOMAIN_SEPARATOR",
      "outputs": [
        {
          "internalType": "bytes32",
          "name": "",
          "type": "bytes32"
        }
      ],
      "stateMutability": "view",
      "type": "function"
    },
    {
      "inputs": [
        {
          "internalType": "address",
          "name": "owner",
          "type": "address"
        },
        {
          "internalType": "address",
          "name": "spender",
          "type": "address"
        }
      ],
      "name": "allowance",
      "outputs": [
        {
          "internalType": "uint256",
          "name": "",
          "type": "uint256"
        }
      ],
      "stateMutability": "view",
      "type": "function"
    },
    {
      "inputs": [
        {
          "internalType": "address",
          "name": "spender",
          "type": "address"
        },
        {
          "internalType": "uint256",
          "name": "amount",
          "type": "uint256"
        }
      ],
      "name": "approve",
      "outputs": [
        {
          "internalType": "bool",
          "name": "",
          "type": "bool"
        }
      ],
      "stateMutability": "nonpayable",
      "type": "function"
    },
    {
      "inputs": [
        {
          "internalType": "address",
          "name": "account",
          "type": "address"
        }
      ],
      "name": "balanceOf",
      "outputs": [
        {
          "internalType": "uint256",
          "name": "",
          "type": "uint256"
        }
      ],
      "stateMutability": "view",
      "type": "function"
    },
    {
      "inputs": [
        {
          "internalType": "address",
          "name": "account",
          "type": "address"
        },
        {
          "internalType": "uint256",
          "name": "snapshotId",
          "type": "uint256"
        }
      ],
      "name": "balanceOfAt",
      "outputs": [
        {
          "internalType": "uint256",
          "name": "",
          "type": "uint256"
        }
      ],
      "stateMutability": "view",
      "type": "function"
    },
    {
      "inputs": [
        {
          "internalType": "uint256",
          "name": "amount",
          "type": "uint256"
        }
      ],
      "name": "burn",
      "outputs": [],
      "stateMutability": "nonpayable",
      "type": "function"
    },
    {
      "inputs": [
        {
          "internalType": "address",
          "name": "account",
          "type": "address"
        },
        {
          "internalType": "uint256",
          "name": "amount",
          "type": "uint256"
        }
      ],
      "name": "burnFrom",
      "outputs": [],
      "stateMutability": "nonpayable",
      "type": "function"
    },
    {
      "inputs": [
        {
          "internalType": "address",
          "name": "account",
          "type": "address"
        },
        {
          "internalType": "uint32",
          "name": "pos",
          "type": "uint32"
        }
      ],
      "name": "checkpoints",
      "outputs": [
        {
          "components": [
            {
              "internalType": "uint32",
              "name": "fromBlock",
              "type": "uint32"
            },
            {
              "internalType": "uint224",
              "name": "votes",
              "type": "uint224"
            }
          ],
          "internalType": "struct ERC20Votes.Checkpoint",
          "name": "",
          "type": "tuple"
        }
      ],
      "stateMutability": "view",
      "type": "function"
    },
    {
      "inputs": [],
      "name": "clock",
      "outputs": [
        {
          "internalType": "uint48",
          "name": "",
          "type": "uint48"
        }
      ],
      "stateMutability": "view",
      "type": "function"
    },
    {
      "inputs": [],
      "name": "decimals",
      "outputs": [
        {
          "internalType": "uint8",
          "name": "",
          "type": "uint8"
        }
      ],
      "stateMutability": "view",
      "type": "function"
    },
    {
      "inputs": [
        {
          "internalType": "address",
          "name": "spender",
          "type": "address"
        },
        {
          "internalType": "uint256",
          "name": "subtractedValue",
          "type": "uint256"
        }
      ],
      "name": "decreaseAllowance",
      "outputs": [
        {
          "internalType": "bool",
          "name": "",
          "type": "bool"
        }
      ],
      "stateMutability": "nonpayable",
      "type": "function"
    },
    {
      "inputs": [
        {
          "internalType": "address",
          "name": "delegatee",
          "type": "address"
        }
      ],
      "name": "delegate",
      "outputs": [],
      "stateMutability": "nonpayable",
      "type": "function"
    },
    {
      "inputs": [
        {
          "internalType": "address",
          "name": "delegatee",
          "type": "address"
        },
        {
          "internalType": "uint256",
          "name": "nonce",
          "type": "uint256"
        },
        {
          "internalType": "uint256",
          "name": "expiry",
          "type": "uint256"
        },
        {
          "internalType": "uint8",
          "name": "v",
          "type": "uint8"
        },
        {
          "internalType": "bytes32",
          "name": "r",
          "type": "bytes32"
        },
        {
          "internalType": "bytes32",
          "name": "s",
          "type": "bytes32"
        }
      ],
      "name": "delegateBySig",
      "outputs": [],
      "stateMutability": "nonpayable",
      "type": "function"
    },
    {
      "inputs": [
        {
          "internalType": "address",
          "name": "account",
          "type": "address"
        }
      ],
      "name": "delegates",
      "outputs": [
        {
          "internalType": "address",
          "name": "",
          "type": "address"
        }
      ],
      "stateMutability": "view",
      "type": "function"
    },
    {
      "inputs": [],
      "name": "eip712Domain",
      "outputs": [
        {
          "internalType": "bytes1",
          "name": "fields",
          "type": "bytes1"
        },
        {
          "internalType": "string",
          "name": "name",
          "type": "string"
        },
        {
          "internalType": "string",
          "name": "version",
          "type": "string"
        },
        {
          "internalType": "uint256",
          "name": "chainId",
          "type": "uint256"
        },
        {
          "internalType": "address",
          "name": "verifyingContract",
          "type": "address"
        },
        {
          "internalType": "bytes32",
          "name": "salt",
          "type": "bytes32"
        },
        {
          "internalType": "uint256[]",
          "name": "extensions",
          "type": "uint256[]"
        }
      ],
      "stateMutability": "view",
      "type": "function"
    },
    {
      "inputs": [
        {
          "internalType": "address",
          "name": "token",
          "type": "address"
        },
        {
          "internalType": "uint256",
          "name": "amount",
          "type": "uint256"
        }
      ],
      "name": "flashFee",
      "outputs": [
        {
          "internalType": "uint256",
          "name": "",
          "type": "uint256"
        }
      ],
      "stateMutability": "view",
      "type": "function"
    },
    {
      "inputs": [
        {
          "internalType": "contract IERC3156FlashBorrower",
          "name": "receiver",
          "type": "address"
        },
        {
          "internalType": "address",
          "name": "token",
          "type": "address"
        },
        {
          "internalType": "uint256",
          "name": "amount",
          "type": "uint256"
        },
        {
          "internalType": "bytes",
          "name": "data",
          "type": "bytes"
        }
      ],
      "name": "flashLoan",
      "outputs": [
        {
          "internalType": "bool",
          "name": "",
          "type": "bool"
        }
      ],
      "stateMutability": "nonpayable",
      "type": "function"
    },
    {
      "inputs": [
        {
          "internalType": "uint256",
          "name": "timepoint",
          "type": "uint256"
        }
      ],
      "name": "getPastTotalSupply",
      "outputs": [
        {
          "internalType": "uint256",
          "name": "",
          "type": "uint256"
        }
      ],
      "stateMutability": "view",
      "type": "function"
    },
    {
      "inputs": [
        {
          "internalType": "address",
          "name": "account",
          "type": "address"
        },
        {
          "internalType": "uint256",
          "name": "timepoint",
          "type": "uint256"
        }
      ],
      "name": "getPastVotes",
      "outputs": [
        {
          "internalType": "uint256",
          "name": "",
          "type": "uint256"
        }
      ],
      "stateMutability": "view",
      "type": "function"
    },
    {
      "inputs": [
        {
          "internalType": "address",
          "name": "account",
          "type": "address"
        }
      ],
      "name": "getVotes",
      "outputs": [
        {
          "internalType": "uint256",
          "name": "",
          "type": "uint256"
        }
      ],
      "stateMutability": "view",
      "type": "function"
    },
    {
      "inputs": [
        {
          "internalType": "address",
          "name": "spender",
          "type": "address"
        },
        {
          "internalType": "uint256",
          "name": "addedValue",
          "type": "uint256"
        }
      ],
      "name": "increaseAllowance",
      "outputs": [
        {
          "internalType": "bool",
          "name": "",
          "type": "bool"
        }
      ],
      "stateMutability": "nonpayable",
      "type": "function"
    },
    {
      "inputs": [
        {
          "internalType": "address",
          "name": "token",
          "type": "address"
        }
      ],
      "name": "maxFlashLoan",
      "outputs": [
        {
          "internalType": "uint256",
          "name": "",
          "type": "uint256"
        }
      ],
      "stateMutability": "view",
      "type": "function"
    },
    {
      "inputs": [
        {
          "internalType": "address",
          "name": "to",
          "type": "address"
        },
        {
          "internalType": "uint256",
          "name": "amount",
          "type": "uint256"
        }
      ],
      "name": "mint",
      "outputs": [],
      "stateMutability": "nonpayable",
      "type": "function"
    },
    {
      "inputs": [],
      "name": "name",
      "outputs": [
        {
          "internalType": "string",
          "name": "",
          "type": "string"
        }
      ],
      "stateMutability": "view",
      "type": "function"
    },
    {
      "inputs": [
        {
          "internalType": "address",
          "name": "owner",
          "type": "address"
        }
      ],
      "name": "nonces",
      "outputs": [
        {
          "internalType": "uint256",
          "name": "",
          "type": "uint256"
        }
      ],
      "stateMutability": "view",
      "type": "function"
    },
    {
      "inputs": [
        {
          "internalType": "address",
          "name": "account",
          "type": "address"
        }
      ],
      "name": "numCheckpoints",
      "outputs": [
        {
          "internalType": "uint32",
          "name": "",
          "type": "uint32"
        }
      ],
      "stateMutability": "view",
      "type": "function"
    },
    {
      "inputs": [],
      "name": "owner",
      "outputs": [
        {
          "internalType": "address",
          "name": "",
          "type": "address"
        }
      ],
      "stateMutability": "view",
      "type": "function"
    },
    {
      "inputs": [],
      "name": "pause",
      "outputs": [],
      "stateMutability": "nonpayable",
      "type": "function"
    },
    {
      "inputs": [],
      "name": "paused",
      "outputs": [
        {
          "internalType": "bool",
          "name": "",
          "type": "bool"
        }
      ],
      "stateMutability": "view",
      "type": "function"
    },
    {
      "inputs": [
        {
          "internalType": "address",
          "name": "owner",
          "type": "address"
        },
        {
          "internalType": "address",
          "name": "spender",
          "type": "address"
        },
        {
          "internalType": "uint256",
          "name": "value",
          "type": "uint256"
        },
        {
          "internalType": "uint256",
          "name": "deadline",
          "type": "uint256"
        },
        {
          "internalType": "uint8",
          "name": "v",
          "type": "uint8"
        },
        {
          "internalType": "bytes32",
          "name": "r",
          "type": "bytes32"
        },
        {
          "internalType": "bytes32",
          "name": "s",
          "type": "bytes32"
        }
      ],
      "name": "permit",
      "outputs": [],
      "stateMutability": "nonpayable",
      "type": "function"
    },
    {
      "inputs": [],
      "name": "renounceOwnership",
      "outputs": [],
      "stateMutability": "nonpayable",
      "type": "function"
    },
    {
      "inputs": [],
      "name": "snapshot",
      "outputs": [],
      "stateMutability": "nonpayable",
      "type": "function"
    },
    {
      "inputs": [],
      "name": "symbol",
      "outputs": [
        {
          "internalType": "string",
          "name": "",
          "type": "string"
        }
      ],
      "stateMutability": "view",
      "type": "function"
    },
    {
      "inputs": [],
      "name": "totalSupply",
      "outputs": [
        {
          "internalType": "uint256",
          "name": "",
          "type": "uint256"
        }
      ],
      "stateMutability": "view",
      "type": "function"
    },
    {
      "inputs": [
        {
          "internalType": "uint256",
          "name": "snapshotId",
          "type": "uint256"
        }
      ],
      "name": "totalSupplyAt",
      "outputs": [
        {
          "internalType": "uint256",
          "name": "",
          "type": "uint256"
        }
      ],
      "stateMutability": "view",
      "type": "function"
    },
    {
      "inputs": [
        {
          "internalType": "address",
          "name": "to",
          "type": "address"
        },
        {
          "internalType": "uint256",
          "name": "amount",
          "type": "uint256"
        }
      ],
      "name": "transfer",
      "outputs": [
        {
          "internalType": "bool",
          "name": "",
          "type": "bool"
        }
      ],
      "stateMutability": "nonpayable",
      "type": "function"
    },
    {
      "inputs": [
        {
          "internalType": "address",
          "name": "from",
          "type": "address"
        },
        {
          "internalType": "address",
          "name": "to",
          "type": "address"
        },
        {
          "internalType": "uint256",
          "name": "amount",
          "type": "uint256"
        }
      ],
      "name": "transferFrom",
      "outputs": [
        {
          "internalType": "bool",
          "name": "",
          "type": "bool"
        }
      ],
      "stateMutability": "nonpayable",
      "type": "function"
    },
    {
      "inputs": [
        {
          "internalType": "address",
          "name": "newOwner",
          "type": "address"
        }
      ],
      "name": "transferOwnership",
      "outputs": [],
      "stateMutability": "nonpayable",
      "type": "function"
    },
    {
      "inputs": [],
      "name": "unpause",
      "outputs": [],
      "stateMutability": "nonpayable",
      "type": "function"
    }
  ],
  "bytecode": "0x6101606040523480156200001257600080fd5b506040518060400160405280600781526020017f4d79546f6b656e00000000000000000000000000000000000000000000000000815250806040518060400160405280600181526020017f31000000000000000000000000000000000000000000000000000000000000008152506040518060400160405280600781526020017f4d79546f6b656e000000000000000000000000000000000000000000000000008152506040518060400160405280600381526020017f4d544b00000000000000000000000000000000000000000000000000000000008152508160039081620000fd919062000678565b5080600490816200010f919062000678565b50505062000132620001266200020460201b60201c565b6200020c60201b60201c565b6000600960146101000a81548160ff02191690831515021790555062000163600a83620002d260201b90919060201c565b610120818152505062000181600b82620002d260201b90919060201c565b6101408181525050818051906020012060e08181525050808051906020012061010081815250504660a08181525050620001c06200032a60201b60201c565b608081815250503073ffffffffffffffffffffffffffffffffffffffff1660c08173ffffffffffffffffffffffffffffffffffffffff168152505050505062000982565b600033905090565b6000600960009054906101000a900473ffffffffffffffffffffffffffffffffffffffff16905081600960006101000a81548173ffffffffffffffffffffffffffffffffffffffff021916908373ffffffffffffffffffffffffffffffffffffffff1602179055508173ffffffffffffffffffffffffffffffffffffffff168173ffffffffffffffffffffffffffffffffffffffff167f8be0079c531659141344cd1fd0a4f28419497f9722a3daafe3b4186f6b6457e060405160405180910390a35050565b6000602083511015620002f857620002f0836200038760201b60201c565b905062000324565b826200030a83620003f460201b60201c565b60000190816200031b919062000678565b5060ff60001b90505b92915050565b60007f8b73c3c69bb8fe3d512ecc4cf759cc79239f7b179b0ffacaa9a75d522b39400f60e0516101005146306040516020016200036c959493929190620007d0565b60405160208183030381529060405280519060200120905090565b600080829050601f81511115620003d757826040517f305a27a9000000000000000000000000000000000000000000000000000000008152600401620003ce9190620008bc565b60405180910390fd5b805181620003e59062000912565b60001c1760001b915050919050565b6000819050919050565b600081519050919050565b7f4e487b7100000000000000000000000000000000000000000000000000000000600052604160045260246000fd5b7f4e487b7100000000000000000000000000000000000000000000000000000000600052602260045260246000fd5b600060028204905060018216806200048057607f821691505b60208210810362000496576200049562000438565b5b50919050565b60008190508160005260206000209050919050565b60006020601f8301049050919050565b600082821b905092915050565b600060088302620005007fffffffffffffffffffffffffffffffffffffffffffffffffffffffffffffffff82620004c1565b6200050c8683620004c1565b95508019841693508086168417925050509392505050565b6000819050919050565b6000819050919050565b600062000559620005536200054d8462000524565b6200052e565b62000524565b9050919050565b6000819050919050565b620005758362000538565b6200058d620005848262000560565b848454620004ce565b825550505050565b600090565b620005a462000595565b620005b18184846200056a565b505050565b5b81811015620005d957620005cd6000826200059a565b600181019050620005b7565b5050565b601f8211156200062857620005f2816200049c565b620005fd84620004b1565b810160208510156200060d578190505b620006256200061c85620004b1565b830182620005b6565b50505b505050565b600082821c905092915050565b60006200064d600019846008026200062d565b1980831691505092915050565b60006200066883836200063a565b9150826002028217905092915050565b6200068382620003fe565b67ffffffffffffffff8111156200069f576200069e62000409565b5b620006ab825462000467565b620006b8828285620005dd565b600060209050601f831160018114620006f05760008415620006db578287015190505b620006e785826200065a565b86555062000757565b601f19841662000700866200049c565b60005b828110156200072a5784890151825560018201915060208501945060208101905062000703565b868310156200074a578489015162000746601f8916826200063a565b8355505b6001600288020188555050505b505050505050565b6000819050919050565b62000774816200075f565b82525050565b620007858162000524565b82525050565b600073ffffffffffffffffffffffffffffffffffffffff82169050919050565b6000620007b8826200078b565b9050919050565b620007ca81620007ab565b82525050565b600060a082019050620007e7600083018862000769565b620007f6602083018762000769565b62000805604083018662000769565b6200081460608301856200077a565b620008236080830184620007bf565b9695505050505050565b600082825260208201905092915050565b60005b838110156200085e57808201518184015260208101905062000841565b60008484015250505050565b6000601f19601f8301169050919050565b60006200088882620003fe565b6200089481856200082d565b9350620008a68185602086016200083e565b620008b1816200086a565b840191505092915050565b60006020820190508181036000830152620008d881846200087b565b905092915050565b600081519050919050565b6000819050602082019050919050565b60006200090982516200075f565b80915050919050565b60006200091f82620008e0565b826200092b84620008eb565b90506200093881620008fb565b925060208210156200097b57620009767fffffffffffffffffffffffffffffffffffffffffffffffffffffffffffffffff83602003600802620004c1565b831692505b5050919050565b60805160a05160c05160e05161010051610120516101405161569a620009dd6000396000610f8601526000610f520152600061261b015260006125fa01526000611d1101526000611d6701526000611d90015261569a6000f3fe608060405234801561001057600080fd5b50600436106102485760003560e01c8063715018a61161013b578063981b24d0116100b8578063d505accf1161007c578063d505accf14610733578063d9d98ce41461074f578063dd62ed3e1461077f578063f1127ed8146107af578063f2fde38b146107df57610248565b8063981b24d0146106575780639ab24eb014610687578063a457c2d7146106b7578063a9059cbb146106e7578063c3cda5201461071757610248565b80638da5cb5b116100ff5780638da5cb5b146105c35780638e539e8c146105e157806391ddadf41461061157806395d89b411461062f5780639711715a1461064d57610248565b8063715018a61461053f57806379cc6790146105495780637ecebe00146105655780638456cb591461059557806384b0196e1461059f57610248565b806342966c68116101c95780635c975abb1161018d5780635c975abb146104615780635cffe9de1461047f578063613255ab146104af5780636fcfff45146104df57806370a082311461050f57610248565b806342966c68146103ab5780634bf5d7e9146103c75780634ee2cd7e146103e5578063587cde1e146104155780635c19a95c1461044557610248565b80633644e515116102105780633644e5151461030757806339509351146103255780633a46b1a8146103555780633f4ba83a1461038557806340c10f191461038f57610248565b806306fdde031461024d578063095ea7b31461026b57806318160ddd1461029b57806323b872dd146102b9578063313ce567146102e9575b600080fd5b6102556107fb565b60405161026291906139cb565b60405180910390f35b61028560048036038101906102809190613a8b565b61088d565b6040516102929190613ae6565b60405180910390f35b6102a36108b0565b6040516102b09190613b10565b60405180910390f35b6102d360048036038101906102ce9190613b2b565b6108ba565b6040516102e09190613ae6565b60405180910390f35b6102f16108e9565b6040516102fe9190613b9a565b60405180910390f35b61030f6108f2565b60405161031c9190613bce565b60405180910390f35b61033f600480360381019061033a9190613a8b565b610901565b60405161034c9190613ae6565b60405180910390f35b61036f600480360381019061036a9190613a8b565b610938565b60405161037c9190613b10565b60405180910390f35b61038d6109db565b005b6103a960048036038101906103a49190613a8b565b6109ed565b005b6103c560048036038101906103c09190613be9565b610a03565b005b6103cf610a17565b6040516103dc91906139cb565b60405180910390f35b6103ff60048036038101906103fa9190613a8b565b610aa5565b60405161040c9190613b10565b60405180910390f35b61042f600480360381019061042a9190613c16565b610b15565b60405161043c9190613c52565b60405180910390f35b61045f600480360381019061045a9190613c16565b610b7e565b005b610469610b92565b6040516104769190613ae6565b60405180910390f35b61049960048036038101906104949190613d10565b610ba9565b6040516104a69190613ae6565b60405180910390f35b6104c960048036038101906104c49190613c16565b610d96565b6040516104d69190613b10565b60405180910390f35b6104f960048036038101906104f49190613c16565b610e0d565b6040516105069190613db7565b60405180910390f35b61052960048036038101906105249190613c16565b610e61565b6040516105369190613b10565b60405180910390f35b610547610ea9565b005b610563600480360381019061055e9190613a8b565b610ebd565b005b61057f600480360381019061057a9190613c16565b610edd565b60405161058c9190613b10565b60405180910390f35b61059d610f2d565b005b6105a7610f3f565b6040516105ba9796959493929190613ecb565b60405180910390f35b6105cb611041565b6040516105d89190613c52565b60405180910390f35b6105fb60048036038101906105f69190613be9565b61106b565b6040516106089190613b10565b60405180910390f35b6106196110d0565b6040516106269190613f70565b60405180910390f35b6106376110e0565b60405161064491906139cb565b60405180910390f35b610655611172565b005b610671600480360381019061066c9190613be9565b611185565b60405161067e9190613b10565b60405180910390f35b6106a1600480360381019061069c9190613c16565b6111b6565b6040516106ae9190613b10565b60405180910390f35b6106d160048036038101906106cc9190613a8b565b6112be565b6040516106de9190613ae6565b60405180910390f35b61070160048036038101906106fc9190613a8b565b611335565b60405161070e9190613ae6565b60405180910390f35b610731600480360381019061072c9190613fe3565b611358565b005b61074d60048036038101906107489190614070565b61145c565b005b61076960048036038101906107649190613a8b565b61159e565b6040516107769190613b10565b60405180910390f35b61079960048036038101906107949190614112565b611620565b6040516107a69190613b10565b60405180910390f35b6107c960048036038101906107c4919061417e565b6116a7565b6040516107d69190614233565b60405180910390f35b6107f960048036038101906107f49190613c16565b6117b7565b005b60606003805461080a9061427d565b80601f01602080910402602001604051908101604052809291908181526020018280546108369061427d565b80156108835780601f1061085857610100808354040283529160200191610883565b820191906000526020600020905b81548152906001019060200180831161086657829003601f168201915b5050505050905090565b60008061089861183a565b90506108a5818585611842565b600191505092915050565b6000600254905090565b6000806108c561183a565b90506108d2858285611a0b565b6108dd858585611a97565b60019150509392505050565b60006012905090565b60006108fc611d0d565b905090565b60008061090c61183a565b905061092d81858561091e8589611620565b61092891906142dd565b611842565b600191505092915050565b60006109426110d0565b65ffffffffffff16821061098b576040517f08c379a00000000000000000000000000000000000000000000000000000000081526004016109829061435d565b60405180910390fd5b6109d3600f60008573ffffffffffffffffffffffffffffffffffffffff1673ffffffffffffffffffffffffffffffffffffffff16815260200190815260200160002083611dc4565b905092915050565b6109e3611f0c565b6109eb611f8a565b565b6109f5611f0c565b6109ff8282611fed565b5050565b610a14610a0e61183a565b82611ffb565b50565b606043610a226110d0565b65ffffffffffff1614610a6a576040517f08c379a0000000000000000000000000000000000000000000000000000000008152600401610a61906143c9565b60405180910390fd5b6040518060400160405280601d81526020017f6d6f64653d626c6f636b6e756d6265722666726f6d3d64656661756c74000000815250905090565b6000806000610af284600560008873ffffffffffffffffffffffffffffffffffffffff1673ffffffffffffffffffffffffffffffffffffffff168152602001908152602001600020612009565b9150915081610b0957610b0485610e61565b610b0b565b805b9250505092915050565b6000600e60008373ffffffffffffffffffffffffffffffffffffffff1673ffffffffffffffffffffffffffffffffffffffff16815260200190815260200160002060009054906101000a900473ffffffffffffffffffffffffffffffffffffffff169050919050565b610b8f610b8961183a565b826120fe565b50565b6000600960149054906101000a900460ff16905090565b6000610bb485610d96565b841115610bf6576040517f08c379a0000000000000000000000000000000000000000000000000000000008152600401610bed9061445b565b60405180910390fd5b6000610c02868661159e565b9050610c0e8786611fed565b7f439148f0bbc682ca079e46d6e2c2f0c1e3b820f1a291b069d8882abf8cf18dd98773ffffffffffffffffffffffffffffffffffffffff166323e30c8b338989868a8a6040518763ffffffff1660e01b8152600401610c72969594939291906144c8565b6020604051808303816000875af1158015610c91573d6000803e3d6000fd5b505050506040513d601f19601f82011682018060405250810190610cb59190614539565b14610cf5576040517f08c379a0000000000000000000000000000000000000000000000000000000008152600401610cec906145d8565b60405180910390fd5b6000610cff612218565b9050610d1788308489610d1291906142dd565b611a0b565b6000821480610d525750600073ffffffffffffffffffffffffffffffffffffffff168173ffffffffffffffffffffffffffffffffffffffff16145b15610d7157610d6c888388610d6791906142dd565b611ffb565b610d87565b610d7b8887611ffb565b610d86888284611a97565b5b60019250505095945050505050565b60003073ffffffffffffffffffffffffffffffffffffffff168273ffffffffffffffffffffffffffffffffffffffff1614610dd2576000610e06565b610dda6108b0565b7fffffffffffffffffffffffffffffffffffffffffffffffffffffffffffffffff610e0591906145f8565b5b9050919050565b6000610e5a600f60008473ffffffffffffffffffffffffffffffffffffffff1673ffffffffffffffffffffffffffffffffffffffff1681526020019081526020016000208054905061221d565b9050919050565b60008060008373ffffffffffffffffffffffffffffffffffffffff1673ffffffffffffffffffffffffffffffffffffffff168152602001908152602001600020549050919050565b610eb1611f0c565b610ebb6000612270565b565b610ecf82610ec961183a565b83611a0b565b610ed98282611ffb565b5050565b6000610f26600c60008473ffffffffffffffffffffffffffffffffffffffff1673ffffffffffffffffffffffffffffffffffffffff168152602001908152602001600020612336565b9050919050565b610f35611f0c565b610f3d612344565b565b600060608060008060006060610f7f600a7f00000000000000000000000000000000000000000000000000000000000000006123a790919063ffffffff16565b610fb3600b7f00000000000000000000000000000000000000000000000000000000000000006123a790919063ffffffff16565b46306000801b600067ffffffffffffffff811115610fd457610fd361462c565b5b6040519080825280602002602001820160405280156110025781602001602082028036833780820191505090505b507f0f00000000000000000000000000000000000000000000000000000000000000959493929190965096509650965096509650965090919293949596565b6000600960009054906101000a900473ffffffffffffffffffffffffffffffffffffffff16905090565b60006110756110d0565b65ffffffffffff1682106110be576040517f08c379a00000000000000000000000000000000000000000000000000000000081526004016110b59061435d565b60405180910390fd5b6110c9601083611dc4565b9050919050565b60006110db43612457565b905090565b6060600480546110ef9061427d565b80601f016020809104026020016040519081016040528092919081815260200182805461111b9061427d565b80156111685780601f1061113d57610100808354040283529160200191611168565b820191906000526020600020905b81548152906001019060200180831161114b57829003601f168201915b5050505050905090565b61117a611f0c565b6111826124ac565b50565b6000806000611195846006612009565b91509150816111ab576111a66108b0565b6111ad565b805b92505050919050565b600080600f60008473ffffffffffffffffffffffffffffffffffffffff1673ffffffffffffffffffffffffffffffffffffffff1681526020019081526020016000208054905090506000811461129557600f60008473ffffffffffffffffffffffffffffffffffffffff1673ffffffffffffffffffffffffffffffffffffffff168152602001908152602001600020600182038154811061125a5761125961465b565b5b9060005260206000200160000160049054906101000a90047bffffffffffffffffffffffffffffffffffffffffffffffffffffffff16611298565b60005b7bffffffffffffffffffffffffffffffffffffffffffffffffffffffff16915050919050565b6000806112c961183a565b905060006112d78286611620565b90508381101561131c576040517f08c379a0000000000000000000000000000000000000000000000000000000008152600401611313906146fc565b60405180910390fd5b6113298286868403611842565b60019250505092915050565b60008061134061183a565b905061134d818585611a97565b600191505092915050565b8342111561139b576040517f08c379a000000000000000000000000000000000000000000000000000000000815260040161139290614768565b60405180910390fd5b60006113fd6113f57fe48329057bfd03d55e49b547132e39cffd9c1820ad7b9d4c5307691425d15adf8989896040516020016113da9493929190614788565b60405160208183030381529060405280519060200120612502565b85858561251c565b905061140881612547565b8614611449576040517f08c379a000000000000000000000000000000000000000000000000000000000815260040161144090614819565b60405180910390fd5b61145381886120fe565b50505050505050565b8342111561149f576040517f08c379a000000000000000000000000000000000000000000000000000000000815260040161149690614885565b60405180910390fd5b60007f6e71edae12b1b97f4d1f60370fef10105fa2faae0126114a169c64845d6126c98888886114ce8c612547565b896040516020016114e4969594939291906148a5565b604051602081830303815290604052805190602001209050600061150782612502565b905060006115178287878761251c565b90508973ffffffffffffffffffffffffffffffffffffffff168173ffffffffffffffffffffffffffffffffffffffff1614611587576040517f08c379a000000000000000000000000000000000000000000000000000000000815260040161157e90614952565b60405180910390fd5b6115928a8a8a611842565b50505050505050505050565b60003073ffffffffffffffffffffffffffffffffffffffff168373ffffffffffffffffffffffffffffffffffffffff161461160e576040517f08c379a0000000000000000000000000000000000000000000000000000000008152600401611605906149be565b60405180910390fd5b61161883836125a5565b905092915050565b6000600160008473ffffffffffffffffffffffffffffffffffffffff1673ffffffffffffffffffffffffffffffffffffffff16815260200190815260200160002060008373ffffffffffffffffffffffffffffffffffffffff1673ffffffffffffffffffffffffffffffffffffffff16815260200190815260200160002054905092915050565b6116af6138fd565b600f60008473ffffffffffffffffffffffffffffffffffffffff1673ffffffffffffffffffffffffffffffffffffffff1681526020019081526020016000208263ffffffff16815481106117065761170561465b565b5b906000526020600020016040518060400160405290816000820160009054906101000a900463ffffffff1663ffffffff1663ffffffff1681526020016000820160049054906101000a90047bffffffffffffffffffffffffffffffffffffffffffffffffffffffff167bffffffffffffffffffffffffffffffffffffffffffffffffffffffff167bffffffffffffffffffffffffffffffffffffffffffffffffffffffff1681525050905092915050565b6117bf611f0c565b600073ffffffffffffffffffffffffffffffffffffffff168173ffffffffffffffffffffffffffffffffffffffff160361182e576040517f08c379a000000000000000000000000000000000000000000000000000000000815260040161182590614a50565b60405180910390fd5b61183781612270565b50565b600033905090565b600073ffffffffffffffffffffffffffffffffffffffff168373ffffffffffffffffffffffffffffffffffffffff16036118b1576040517f08c379a00000000000000000000000000000000000000000000000000000000081526004016118a890614ae2565b60405180910390fd5b600073ffffffffffffffffffffffffffffffffffffffff168273ffffffffffffffffffffffffffffffffffffffff1603611920576040517f08c379a000000000000000000000000000000000000000000000000000000000815260040161191790614b74565b60405180910390fd5b80600160008573ffffffffffffffffffffffffffffffffffffffff1673ffffffffffffffffffffffffffffffffffffffff16815260200190815260200160002060008473ffffffffffffffffffffffffffffffffffffffff1673ffffffffffffffffffffffffffffffffffffffff168152602001908152602001600020819055508173ffffffffffffffffffffffffffffffffffffffff168373ffffffffffffffffffffffffffffffffffffffff167f8c5be1e5ebec7d5bd14f71427d1e84f3dd0314c0f7b2291e5b200ac8c7c3b925836040516119fe9190613b10565b60405180910390a3505050565b6000611a178484611620565b90507fffffffffffffffffffffffffffffffffffffffffffffffffffffffffffffffff8114611a915781811015611a83576040517f08c379a0000000000000000000000000000000000000000000000000000000008152600401611a7a90614be0565b60405180910390fd5b611a908484848403611842565b5b50505050565b600073ffffffffffffffffffffffffffffffffffffffff168373ffffffffffffffffffffffffffffffffffffffff1603611b06576040517f08c379a0000000000000000000000000000000000000000000000000000000008152600401611afd90614c72565b60405180910390fd5b600073ffffffffffffffffffffffffffffffffffffffff168273ffffffffffffffffffffffffffffffffffffffff1603611b75576040517f08c379a0000000000000000000000000000000000000000000000000000000008152600401611b6c90614d04565b60405180910390fd5b611b808383836125ad565b60008060008573ffffffffffffffffffffffffffffffffffffffff1673ffffffffffffffffffffffffffffffffffffffff16815260200190815260200160002054905081811015611c06576040517f08c379a0000000000000000000000000000000000000000000000000000000008152600401611bfd90614d96565b60405180910390fd5b8181036000808673ffffffffffffffffffffffffffffffffffffffff1673ffffffffffffffffffffffffffffffffffffffff16815260200190815260200160002081905550816000808573ffffffffffffffffffffffffffffffffffffffff1673ffffffffffffffffffffffffffffffffffffffff168152602001908152602001600020600082825401925050819055508273ffffffffffffffffffffffffffffffffffffffff168473ffffffffffffffffffffffffffffffffffffffff167fddf252ad1be2c89b69c2b068fc378daa952ba7f163c4a11628f55a4df523b3ef84604051611cf49190613b10565b60405180910390a3611d078484846125c5565b50505050565b60007f000000000000000000000000000000000000000000000000000000000000000073ffffffffffffffffffffffffffffffffffffffff163073ffffffffffffffffffffffffffffffffffffffff16148015611d8957507f000000000000000000000000000000000000000000000000000000000000000046145b15611db6577f00000000000000000000000000000000000000000000000000000000000000009050611dc1565b611dbe6125d5565b90505b90565b600080838054905090506000808290506005831115611e3a576000611de88461266b565b84611df391906145f8565b905085611e008883612764565b60000160009054906101000a900463ffffffff1663ffffffff161115611e2857809150611e38565b600181611e3591906142dd565b92505b505b5b80821015611e9a576000611e4f8383612779565b905085611e5c8883612764565b60000160009054906101000a900463ffffffff1663ffffffff161115611e8457809150611e94565b600181611e9191906142dd565b92505b50611e3b565b60008114611ee057611eaf8660018303612764565b60000160049054906101000a90047bffffffffffffffffffffffffffffffffffffffffffffffffffffffff16611ee3565b60005b7bffffffffffffffffffffffffffffffffffffffffffffffffffffffff16935050505092915050565b611f1461183a565b73ffffffffffffffffffffffffffffffffffffffff16611f32611041565b73ffffffffffffffffffffffffffffffffffffffff1614611f88576040517f08c379a0000000000000000000000000000000000000000000000000000000008152600401611f7f90614e02565b60405180910390fd5b565b611f9261279f565b6000600960146101000a81548160ff0219169083151502179055507f5db9ee0a495bf2e6ff9c91a7834c1ba4fdd244a5e8aa4e537bd38aeae4b073aa611fd661183a565b604051611fe39190613c52565b60405180910390a1565b611ff782826127e8565b5050565b6120058282612875565b5050565b6000806000841161204f576040517f08c379a000000000000000000000000000000000000000000000000000000000815260040161204690614e6e565b60405180910390fd5b612057612893565b841115612099576040517f08c379a000000000000000000000000000000000000000000000000000000000815260040161209090614eda565b60405180910390fd5b60006120b185856000016128a490919063ffffffff16565b9050836000018054905081036120ce5760008092509250506120f7565b60018460010182815481106120e6576120e561465b565b5b906000526020600020015492509250505b9250929050565b600061210983610b15565b9050600061211684610e61565b905082600e60008673ffffffffffffffffffffffffffffffffffffffff1673ffffffffffffffffffffffffffffffffffffffff16815260200190815260200160002060006101000a81548173ffffffffffffffffffffffffffffffffffffffff021916908373ffffffffffffffffffffffffffffffffffffffff1602179055508273ffffffffffffffffffffffffffffffffffffffff168273ffffffffffffffffffffffffffffffffffffffff168573ffffffffffffffffffffffffffffffffffffffff167f3134e8a2e6d97e929a7e54011ea5485d7d196dd5f0ba4d4ef95803e8e3fc257f60405160405180910390a461221282848361295d565b50505050565b600090565b600063ffffffff8016821115612268576040517f08c379a000000000000000000000000000000000000000000000000000000000815260040161225f90614f6c565b60405180910390fd5b819050919050565b6000600960009054906101000a900473ffffffffffffffffffffffffffffffffffffffff16905081600960006101000a81548173ffffffffffffffffffffffffffffffffffffffff021916908373ffffffffffffffffffffffffffffffffffffffff1602179055508173ffffffffffffffffffffffffffffffffffffffff168173ffffffffffffffffffffffffffffffffffffffff167f8be0079c531659141344cd1fd0a4f28419497f9722a3daafe3b4186f6b6457e060405160405180910390a35050565b600081600001549050919050565b61234c612b56565b6001600960146101000a81548160ff0219169083151502179055507f62e78cea01bee320cd4e420270b5ea74000d11b0c9f74754ebdbfc544b05a25861239061183a565b60405161239d9190613c52565b60405180910390a1565b606060ff60001b83146123c4576123bd83612ba0565b9050612451565b8180546123d09061427d565b80601f01602080910402602001604051908101604052809291908181526020018280546123fc9061427d565b80156124495780601f1061241e57610100808354040283529160200191612449565b820191906000526020600020905b81548152906001019060200180831161242c57829003601f168201915b505050505090505b92915050565b600065ffffffffffff80168211156124a4576040517f08c379a000000000000000000000000000000000000000000000000000000000815260040161249b90614ffe565b60405180910390fd5b819050919050565b60006124b86008612c14565b60006124c2612893565b90507f8030e83b04d87bef53480e26263266d6ca66863aa8506aca6f2559d18aa1cb67816040516124f39190613b10565b60405180910390a18091505090565b600061251561250f611d0d565b83612c2a565b9050919050565b600080600061252d87878787612c6b565b9150915061253a81612d4d565b8192505050949350505050565b600080600c60008473ffffffffffffffffffffffffffffffffffffffff1673ffffffffffffffffffffffffffffffffffffffff168152602001908152602001600020905061259481612336565b915061259f81612c14565b50919050565b600092915050565b6125b5612b56565b6125c0838383612eb3565b505050565b6125d0838383612f6b565b505050565b60007f8b73c3c69bb8fe3d512ecc4cf759cc79239f7b179b0ffacaa9a75d522b39400f7f00000000000000000000000000000000000000000000000000000000000000007f0000000000000000000000000000000000000000000000000000000000000000463060405160200161265095949392919061501e565b60405160208183030381529060405280519060200120905090565b600080820361267d576000905061275f565b6000600161268a84612f96565b901c6001901b905060018184816126a4576126a3615071565b5b048201901c905060018184816126bd576126bc615071565b5b048201901c905060018184816126d6576126d5615071565b5b048201901c905060018184816126ef576126ee615071565b5b048201901c9050600181848161270857612707615071565b5b048201901c9050600181848161272157612720615071565b5b048201901c9050600181848161273a57612739615071565b5b048201901c905061275b8182858161275557612754615071565b5b04613077565b9150505b919050565b60008260005281602060002001905092915050565b6000600282841861278a91906150a0565b82841661279791906142dd565b905092915050565b6127a7610b92565b6127e6576040517f08c379a00000000000000000000000000000000000000000000000000000000081526004016127dd9061511d565b60405180910390fd5b565b6127f28282613090565b6127fa6131e6565b7bffffffffffffffffffffffffffffffffffffffffffffffffffffffff166128206108b0565b1115612861576040517f08c379a0000000000000000000000000000000000000000000000000000000008152600401612858906151af565b60405180910390fd5b61286f601061320a83613220565b50505050565b61287f82826134fb565b61288d60106136c883613220565b50505050565b600061289f6008612336565b905090565b6000808380549050036128ba5760009050612957565b600080848054905090505b8082101561290e5760006128d98383612779565b9050846128e687836136de565b6000015411156128f857809150612908565b60018161290591906142dd565b92505b506128c5565b6000821180156129365750836129308660018561292b91906145f8565b6136de565b60000154145b156129515760018261294891906145f8565b92505050612957565b81925050505b92915050565b8173ffffffffffffffffffffffffffffffffffffffff168373ffffffffffffffffffffffffffffffffffffffff16141580156129995750600081115b15612b5157600073ffffffffffffffffffffffffffffffffffffffff168373ffffffffffffffffffffffffffffffffffffffff1614612a7757600080612a20600f60008773ffffffffffffffffffffffffffffffffffffffff1673ffffffffffffffffffffffffffffffffffffffff1681526020019081526020016000206136c885613220565b915091508473ffffffffffffffffffffffffffffffffffffffff167fdec2bacdd2f05b59de34da9b523dff8be42e5e38e818c82fdb0bae774387a7248383604051612a6c9291906151cf565b60405180910390a250505b600073ffffffffffffffffffffffffffffffffffffffff168273ffffffffffffffffffffffffffffffffffffffff1614612b5057600080612af9600f60008673ffffffffffffffffffffffffffffffffffffffff1673ffffffffffffffffffffffffffffffffffffffff16815260200190815260200160002061320a85613220565b915091508373ffffffffffffffffffffffffffffffffffffffff167fdec2bacdd2f05b59de34da9b523dff8be42e5e38e818c82fdb0bae774387a7248383604051612b459291906151cf565b60405180910390a250505b5b505050565b612b5e610b92565b15612b9e576040517f08c379a0000000000000000000000000000000000000000000000000000000008152600401612b9590615244565b60405180910390fd5b565b60606000612bad83613700565b90506000602067ffffffffffffffff811115612bcc57612bcb61462c565b5b6040519080825280601f01601f191660200182016040528015612bfe5781602001600182028036833780820191505090505b5090508181528360208201528092505050919050565b6001816000016000828254019250508190555050565b60006040517f190100000000000000000000000000000000000000000000000000000000000081528360028201528260228201526042812091505092915050565b6000807f7fffffffffffffffffffffffffffffff5d576e7357a4501ddfe92f46681b20a08360001c1115612ca6576000600391509150612d44565b600060018787878760405160008152602001604052604051612ccb9493929190615264565b6020604051602081039080840390855afa158015612ced573d6000803e3d6000fd5b505050602060405103519050600073ffffffffffffffffffffffffffffffffffffffff168173ffffffffffffffffffffffffffffffffffffffff1603612d3b57600060019250925050612d44565b80600092509250505b94509492505050565b60006004811115612d6157612d606152a9565b5b816004811115612d7457612d736152a9565b5b0315612eb05760016004811115612d8e57612d8d6152a9565b5b816004811115612da157612da06152a9565b5b03612de1576040517f08c379a0000000000000000000000000000000000000000000000000000000008152600401612dd890615324565b60405180910390fd5b60026004811115612df557612df46152a9565b5b816004811115612e0857612e076152a9565b5b03612e48576040517f08c379a0000000000000000000000000000000000000000000000000000000008152600401612e3f90615390565b60405180910390fd5b60036004811115612e5c57612e5b6152a9565b5b816004811115612e6f57612e6e6152a9565b5b03612eaf576040517f08c379a0000000000000000000000000000000000000000000000000000000008152600401612ea690615422565b60405180910390fd5b5b50565b612ebe838383613750565b600073ffffffffffffffffffffffffffffffffffffffff168373ffffffffffffffffffffffffffffffffffffffff1603612f0857612efb82613755565b612f036137a8565b612f66565b600073ffffffffffffffffffffffffffffffffffffffff168273ffffffffffffffffffffffffffffffffffffffff1603612f5257612f4583613755565b612f4d6137a8565b612f65565b612f5b83613755565b612f6482613755565b5b5b505050565b612f768383836137bc565b612f91612f8284610b15565b612f8b84610b15565b8361295d565b505050565b600080600090506000608084901c1115612fb857608083901c92506080810190505b6000604084901c1115612fd357604083901c92506040810190505b6000602084901c1115612fee57602083901c92506020810190505b6000601084901c111561300957601083901c92506010810190505b6000600884901c111561302457600883901c92506008810190505b6000600484901c111561303f57600483901c92506004810190505b6000600284901c111561305a57600283901c92506002810190505b6000600184901c111561306e576001810190505b80915050919050565b60008183106130865781613088565b825b905092915050565b600073ffffffffffffffffffffffffffffffffffffffff168273ffffffffffffffffffffffffffffffffffffffff16036130ff576040517f08c379a00000000000000000000000000000000000000000000000000000000081526004016130f69061548e565b60405180910390fd5b61310b600083836125ad565b806002600082825461311d91906142dd565b92505081905550806000808473ffffffffffffffffffffffffffffffffffffffff1673ffffffffffffffffffffffffffffffffffffffff168152602001908152602001600020600082825401925050819055508173ffffffffffffffffffffffffffffffffffffffff16600073ffffffffffffffffffffffffffffffffffffffff167fddf252ad1be2c89b69c2b068fc378daa952ba7f163c4a11628f55a4df523b3ef836040516131ce9190613b10565b60405180910390a36131e2600083836125c5565b5050565b60007bffffffffffffffffffffffffffffffffffffffffffffffffffffffff905090565b6000818361321891906142dd565b905092915050565b60008060008580549050905060008082146132e6576132428760018403612764565b6040518060400160405290816000820160009054906101000a900463ffffffff1663ffffffff1663ffffffff1681526020016000820160049054906101000a90047bffffffffffffffffffffffffffffffffffffffffffffffffffffffff167bffffffffffffffffffffffffffffffffffffffffffffffffffffffff167bffffffffffffffffffffffffffffffffffffffffffffffffffffffff1681525050613322565b6040518060400160405280600063ffffffff16815260200160007bffffffffffffffffffffffffffffffffffffffffffffffffffffffff168152505b905080602001517bffffffffffffffffffffffffffffffffffffffffffffffffffffffff16935061335784868863ffffffff16565b9250600082118015613381575061336c6110d0565b65ffffffffffff16816000015163ffffffff16145b156133f25761338f836137c1565b61339c8860018503612764565b60000160046101000a8154817bffffffffffffffffffffffffffffffffffffffffffffffffffffffff02191690837bffffffffffffffffffffffffffffffffffffffffffffffffffffffff1602179055506134f1565b8660405180604001604052806134166134096110d0565b65ffffffffffff1661221d565b63ffffffff16815260200161342a866137c1565b7bffffffffffffffffffffffffffffffffffffffffffffffffffffffff168152509080600181540180825580915050600190039060005260206000200160009091909190915060008201518160000160006101000a81548163ffffffff021916908363ffffffff16021790555060208201518160000160046101000a8154817bffffffffffffffffffffffffffffffffffffffffffffffffffffffff02191690837bffffffffffffffffffffffffffffffffffffffffffffffffffffffff16021790555050505b5050935093915050565b600073ffffffffffffffffffffffffffffffffffffffff168273ffffffffffffffffffffffffffffffffffffffff160361356a576040517f08c379a000000000000000000000000000000000000000000000000000000000815260040161356190615520565b60405180910390fd5b613576826000836125ad565b60008060008473ffffffffffffffffffffffffffffffffffffffff1673ffffffffffffffffffffffffffffffffffffffff168152602001908152602001600020549050818110156135fc576040517f08c379a00000000000000000000000000000000000000000000000000000000081526004016135f3906155b2565b60405180910390fd5b8181036000808573ffffffffffffffffffffffffffffffffffffffff1673ffffffffffffffffffffffffffffffffffffffff1681526020019081526020016000208190555081600260008282540392505081905550600073ffffffffffffffffffffffffffffffffffffffff168373ffffffffffffffffffffffffffffffffffffffff167fddf252ad1be2c89b69c2b068fc378daa952ba7f163c4a11628f55a4df523b3ef846040516136af9190613b10565b60405180910390a36136c3836000846125c5565b505050565b600081836136d691906145f8565b905092915050565b600080836000528260206000200190506136f78161382c565b91505092915050565b60008060ff8360001c169050601f811115613747576040517fb3512b0c00000000000000000000000000000000000000000000000000000000815260040160405180910390fd5b80915050919050565b505050565b6137a5600560008373ffffffffffffffffffffffffffffffffffffffff1673ffffffffffffffffffffffffffffffffffffffff1681526020019081526020016000206137a083610e61565b613836565b50565b6137ba60066137b56108b0565b613836565b565b505050565b60007bffffffffffffffffffffffffffffffffffffffffffffffffffffffff8016821115613824576040517f08c379a000000000000000000000000000000000000000000000000000000000815260040161381b90615644565b60405180910390fd5b819050919050565b6000819050919050565b6000613840612893565b90508061384f846000016138b1565b10156138ac5782600001819080600181540180825580915050600190039060005260206000200160009091909190915055826001018290806001815401808255809150506001900390600052602060002001600090919091909150555b505050565b6000808280549050036138c757600090506138f8565b81600183805490506138d991906145f8565b815481106138ea576138e961465b565b5b906000526020600020015490505b919050565b6040518060400160405280600063ffffffff16815260200160007bffffffffffffffffffffffffffffffffffffffffffffffffffffffff1681525090565b600081519050919050565b600082825260208201905092915050565b60005b8381101561397557808201518184015260208101905061395a565b60008484015250505050565b6000601f19601f8301169050919050565b600061399d8261393b565b6139a78185613946565b93506139b7818560208601613957565b6139c081613981565b840191505092915050565b600060208201905081810360008301526139e58184613992565b905092915050565b600080fd5b600080fd5b600073ffffffffffffffffffffffffffffffffffffffff82169050919050565b6000613a22826139f7565b9050919050565b613a3281613a17565b8114613a3d57600080fd5b50565b600081359050613a4f81613a29565b92915050565b6000819050919050565b613a6881613a55565b8114613a7357600080fd5b50565b600081359050613a8581613a5f565b92915050565b60008060408385031215613aa257613aa16139ed565b5b6000613ab085828601613a40565b9250506020613ac185828601613a76565b9150509250929050565b60008115159050919050565b613ae081613acb565b82525050565b6000602082019050613afb6000830184613ad7565b92915050565b613b0a81613a55565b82525050565b6000602082019050613b256000830184613b01565b92915050565b600080600060608486031215613b4457613b436139ed565b5b6000613b5286828701613a40565b9350506020613b6386828701613a40565b9250506040613b7486828701613a76565b9150509250925092565b600060ff82169050919050565b613b9481613b7e565b82525050565b6000602082019050613baf6000830184613b8b565b92915050565b6000819050919050565b613bc881613bb5565b82525050565b6000602082019050613be36000830184613bbf565b92915050565b600060208284031215613bff57613bfe6139ed565b5b6000613c0d84828501613a76565b91505092915050565b600060208284031215613c2c57613c2b6139ed565b5b6000613c3a84828501613a40565b91505092915050565b613c4c81613a17565b82525050565b6000602082019050613c676000830184613c43565b92915050565b6000613c7882613a17565b9050919050565b613c8881613c6d565b8114613c9357600080fd5b50565b600081359050613ca581613c7f565b92915050565b600080fd5b600080fd5b600080fd5b60008083601f840112613cd057613ccf613cab565b5b8235905067ffffffffffffffff811115613ced57613cec613cb0565b5b602083019150836001820283011115613d0957613d08613cb5565b5b9250929050565b600080600080600060808688031215613d2c57613d2b6139ed565b5b6000613d3a88828901613c96565b9550506020613d4b88828901613a40565b9450506040613d5c88828901613a76565b935050606086013567ffffffffffffffff811115613d7d57613d7c6139f2565b5b613d8988828901613cba565b92509250509295509295909350565b600063ffffffff82169050919050565b613db181613d98565b82525050565b6000602082019050613dcc6000830184613da8565b92915050565b60007fff0000000000000000000000000000000000000000000000000000000000000082169050919050565b613e0781613dd2565b82525050565b600081519050919050565b600082825260208201905092915050565b6000819050602082019050919050565b613e4281613a55565b82525050565b6000613e548383613e39565b60208301905092915050565b6000602082019050919050565b6000613e7882613e0d565b613e828185613e18565b9350613e8d83613e29565b8060005b83811015613ebe578151613ea58882613e48565b9750613eb083613e60565b925050600181019050613e91565b5085935050505092915050565b600060e082019050613ee0600083018a613dfe565b8181036020830152613ef28189613992565b90508181036040830152613f068188613992565b9050613f156060830187613b01565b613f226080830186613c43565b613f2f60a0830185613bbf565b81810360c0830152613f418184613e6d565b905098975050505050505050565b600065ffffffffffff82169050919050565b613f6a81613f4f565b82525050565b6000602082019050613f856000830184613f61565b92915050565b613f9481613b7e565b8114613f9f57600080fd5b50565b600081359050613fb181613f8b565b92915050565b613fc081613bb5565b8114613fcb57600080fd5b50565b600081359050613fdd81613fb7565b92915050565b60008060008060008060c0878903121561400057613fff6139ed565b5b600061400e89828a01613a40565b965050602061401f89828a01613a76565b955050604061403089828a01613a76565b945050606061404189828a01613fa2565b935050608061405289828a01613fce565b92505060a061406389828a01613fce565b9150509295509295509295565b600080600080600080600060e0888a03121561408f5761408e6139ed565b5b600061409d8a828b01613a40565b97505060206140ae8a828b01613a40565b96505060406140bf8a828b01613a76565b95505060606140d08a828b01613a76565b94505060806140e18a828b01613fa2565b93505060a06140f28a828b01613fce565b92505060c06141038a828b01613fce565b91505092959891949750929550565b60008060408385031215614129576141286139ed565b5b600061413785828601613a40565b925050602061414885828601613a40565b9150509250929050565b61415b81613d98565b811461416657600080fd5b50565b60008135905061417881614152565b92915050565b60008060408385031215614195576141946139ed565b5b60006141a385828601613a40565b92505060206141b485828601614169565b9150509250929050565b6141c781613d98565b82525050565b60007bffffffffffffffffffffffffffffffffffffffffffffffffffffffff82169050919050565b6141fe816141cd565b82525050565b60408201600082015161421a60008501826141be565b50602082015161422d60208501826141f5565b50505050565b60006040820190506142486000830184614204565b92915050565b7f4e487b7100000000000000000000000000000000000000000000000000000000600052602260045260246000fd5b6000600282049050600182168061429557607f821691505b6020821081036142a8576142a761424e565b5b50919050565b7f4e487b7100000000000000000000000000000000000000000000000000000000600052601160045260246000fd5b60006142e882613a55565b91506142f383613a55565b925082820190508082111561430b5761430a6142ae565b5b92915050565b7f4552433230566f7465733a20667574757265206c6f6f6b757000000000000000600082015250565b6000614347601983613946565b915061435282614311565b602082019050919050565b600060208201905081810360008301526143768161433a565b9050919050565b7f4552433230566f7465733a2062726f6b656e20636c6f636b206d6f6465000000600082015250565b60006143b3601d83613946565b91506143be8261437d565b602082019050919050565b600060208201905081810360008301526143e2816143a6565b9050919050565b7f4552433230466c6173684d696e743a20616d6f756e742065786365656473206d60008201527f6178466c6173684c6f616e000000000000000000000000000000000000000000602082015250565b6000614445602b83613946565b9150614450826143e9565b604082019050919050565b6000602082019050818103600083015261447481614438565b9050919050565b600082825260208201905092915050565b82818337600083830152505050565b60006144a7838561447b565b93506144b483858461448c565b6144bd83613981565b840190509392505050565b600060a0820190506144dd6000830189613c43565b6144ea6020830188613c43565b6144f76040830187613b01565b6145046060830186613b01565b818103608083015261451781848661449b565b9050979650505050505050565b60008151905061453381613fb7565b92915050565b60006020828403121561454f5761454e6139ed565b5b600061455d84828501614524565b91505092915050565b7f4552433230466c6173684d696e743a20696e76616c69642072657475726e207660008201527f616c756500000000000000000000000000000000000000000000000000000000602082015250565b60006145c2602483613946565b91506145cd82614566565b604082019050919050565b600060208201905081810360008301526145f1816145b5565b9050919050565b600061460382613a55565b915061460e83613a55565b9250828203905081811115614626576146256142ae565b5b92915050565b7f4e487b7100000000000000000000000000000000000000000000000000000000600052604160045260246000fd5b7f4e487b7100000000000000000000000000000000000000000000000000000000600052603260045260246000fd5b7f45524332303a2064656372656173656420616c6c6f77616e63652062656c6f7760008201527f207a65726f000000000000000000000000000000000000000000000000000000602082015250565b60006146e6602583613946565b91506146f18261468a565b604082019050919050565b60006020820190508181036000830152614715816146d9565b9050919050565b7f4552433230566f7465733a207369676e61747572652065787069726564000000600082015250565b6000614752601d83613946565b915061475d8261471c565b602082019050919050565b6000602082019050818103600083015261478181614745565b9050919050565b600060808201905061479d6000830187613bbf565b6147aa6020830186613c43565b6147b76040830185613b01565b6147c46060830184613b01565b95945050505050565b7f4552433230566f7465733a20696e76616c6964206e6f6e636500000000000000600082015250565b6000614803601983613946565b915061480e826147cd565b602082019050919050565b60006020820190508181036000830152614832816147f6565b9050919050565b7f45524332305065726d69743a206578706972656420646561646c696e65000000600082015250565b600061486f601d83613946565b915061487a82614839565b602082019050919050565b6000602082019050818103600083015261489e81614862565b9050919050565b600060c0820190506148ba6000830189613bbf565b6148c76020830188613c43565b6148d46040830187613c43565b6148e16060830186613b01565b6148ee6080830185613b01565b6148fb60a0830184613b01565b979650505050505050565b7f45524332305065726d69743a20696e76616c6964207369676e61747572650000600082015250565b600061493c601e83613946565b915061494782614906565b602082019050919050565b6000602082019050818103600083015261496b8161492f565b9050919050565b7f4552433230466c6173684d696e743a2077726f6e6720746f6b656e0000000000600082015250565b60006149a8601b83613946565b91506149b382614972565b602082019050919050565b600060208201905081810360008301526149d78161499b565b9050919050565b7f4f776e61626c653a206e6577206f776e657220697320746865207a65726f206160008201527f6464726573730000000000000000000000000000000000000000000000000000602082015250565b6000614a3a602683613946565b9150614a45826149de565b604082019050919050565b60006020820190508181036000830152614a6981614a2d565b9050919050565b7f45524332303a20617070726f76652066726f6d20746865207a65726f2061646460008201527f7265737300000000000000000000000000000000000000000000000000000000602082015250565b6000614acc602483613946565b9150614ad782614a70565b604082019050919050565b60006020820190508181036000830152614afb81614abf565b9050919050565b7f45524332303a20617070726f766520746f20746865207a65726f20616464726560008201527f7373000000000000000000000000000000000000000000000000000000000000602082015250565b6000614b5e602283613946565b9150614b6982614b02565b604082019050919050565b60006020820190508181036000830152614b8d81614b51565b9050919050565b7f45524332303a20696e73756666696369656e7420616c6c6f77616e6365000000600082015250565b6000614bca601d83613946565b9150614bd582614b94565b602082019050919050565b60006020820190508181036000830152614bf981614bbd565b9050919050565b7f45524332303a207472616e736665722066726f6d20746865207a65726f20616460008201527f6472657373000000000000000000000000000000000000000000000000000000602082015250565b6000614c5c602583613946565b9150614c6782614c00565b604082019050919050565b60006020820190508181036000830152614c8b81614c4f565b9050919050565b7f45524332303a207472616e7366657220746f20746865207a65726f206164647260008201527f6573730000000000000000000000000000000000000000000000000000000000602082015250565b6000614cee602383613946565b9150614cf982614c92565b604082019050919050565b60006020820190508181036000830152614d1d81614ce1565b9050919050565b7f45524332303a207472616e7366657220616d6f756e742065786365656473206260008201527f616c616e63650000000000000000000000000000000000000000000000000000602082015250565b6000614d80602683613946565b9150614d8b82614d24565b604082019050919050565b60006020820190508181036000830152614daf81614d73565b9050919050565b7f4f776e61626c653a2063616c6c6572206973206e6f7420746865206f776e6572600082015250565b6000614dec602083613946565b9150614df782614db6565b602082019050919050565b60006020820190508181036000830152614e1b81614ddf565b9050919050565b7f4552433230536e617073686f743a206964206973203000000000000000000000600082015250565b6000614e58601683613946565b9150614e6382614e22565b602082019050919050565b60006020820190508181036000830152614e8781614e4b565b9050919050565b7f4552433230536e617073686f743a206e6f6e6578697374656e74206964000000600082015250565b6000614ec4601d83613946565b9150614ecf82614e8e565b602082019050919050565b60006020820190508181036000830152614ef381614eb7565b9050919050565b7f53616665436173743a2076616c756520646f65736e27742066697420696e203360008201527f3220626974730000000000000000000000000000000000000000000000000000602082015250565b6000614f56602683613946565b9150614f6182614efa565b604082019050919050565b60006020820190508181036000830152614f8581614f49565b9050919050565b7f53616665436173743a2076616c756520646f65736e27742066697420696e203460008201527f3820626974730000000000000000000000000000000000000000000000000000602082015250565b6000614fe8602683613946565b9150614ff382614f8c565b604082019050919050565b6000602082019050818103600083015261501781614fdb565b9050919050565b600060a0820190506150336000830188613bbf565b6150406020830187613bbf565b61504d6040830186613bbf565b61505a6060830185613b01565b6150676080830184613c43565b9695505050505050565b7f4e487b7100000000000000000000000000000000000000000000000000000000600052601260045260246000fd5b60006150ab82613a55565b91506150b683613a55565b9250826150c6576150c5615071565b5b828204905092915050565b7f5061757361626c653a206e6f7420706175736564000000000000000000000000600082015250565b6000615107601483613946565b9150615112826150d1565b602082019050919050565b60006020820190508181036000830152615136816150fa565b9050919050565b7f4552433230566f7465733a20746f74616c20737570706c79207269736b73206f60008201527f766572666c6f77696e6720766f74657300000000000000000000000000000000602082015250565b6000615199603083613946565b91506151a48261513d565b604082019050919050565b600060208201905081810360008301526151c88161518c565b9050919050565b60006040820190506151e46000830185613b01565b6151f16020830184613b01565b9392505050565b7f5061757361626c653a2070617573656400000000000000000000000000000000600082015250565b600061522e601083613946565b9150615239826151f8565b602082019050919050565b6000602082019050818103600083015261525d81615221565b9050919050565b60006080820190506152796000830187613bbf565b6152866020830186613b8b565b6152936040830185613bbf565b6152a06060830184613bbf565b95945050505050565b7f4e487b7100000000000000000000000000000000000000000000000000000000600052602160045260246000fd5b7f45434453413a20696e76616c6964207369676e61747572650000000000000000600082015250565b600061530e601883613946565b9150615319826152d8565b602082019050919050565b6000602082019050818103600083015261533d81615301565b9050919050565b7f45434453413a20696e76616c6964207369676e6174757265206c656e67746800600082015250565b600061537a601f83613946565b915061538582615344565b602082019050919050565b600060208201905081810360008301526153a98161536d565b9050919050565b7f45434453413a20696e76616c6964207369676e6174757265202773272076616c60008201527f7565000000000000000000000000000000000000000000000000000000000000602082015250565b600061540c602283613946565b9150615417826153b0565b604082019050919050565b6000602082019050818103600083015261543b816153ff565b9050919050565b7f45524332303a206d696e7420746f20746865207a65726f206164647265737300600082015250565b6000615478601f83613946565b915061548382615442565b602082019050919050565b600060208201905081810360008301526154a78161546b565b9050919050565b7f45524332303a206275726e2066726f6d20746865207a65726f2061646472657360008201527f7300000000000000000000000000000000000000000000000000000000000000602082015250565b600061550a602183613946565b9150615515826154ae565b604082019050919050565b60006020820190508181036000830152615539816154fd565b9050919050565b7f45524332303a206275726e20616d6f756e7420657863656564732062616c616e60008201527f6365000000000000000000000000000000000000000000000000000000000000602082015250565b600061559c602283613946565b91506155a782615540565b604082019050919050565b600060208201905081810360008301526155cb8161558f565b9050919050565b7f53616665436173743a2076616c756520646f65736e27742066697420696e203260008201527f3234206269747300000000000000000000000000000000000000000000000000602082015250565b600061562e602783613946565b9150615639826155d2565b604082019050919050565b6000602082019050818103600083015261565d81615621565b905091905056fea264697066735822122000089228eb30e393034b6aca09ff4bca2836fae563f3901aeb476e7ebd3c496664736f6c63430008130033",
  "linkReferences": {},
  "deployedLinkReferences": {}
}